{
  "_format": "hh-sol-artifact-1",
  "contractName": "BikeChain",
  "sourceName": "contracts/BikeChain.sol",
  "contractAddress": "0x0fB99Ac4c0Ee2521fe180C706F62a3aaf9f10F24",
  "abi": [
    {
      "inputs": [],
      "stateMutability": "nonpayable",
      "type": "constructor"
    },
    {
      "inputs": [
        {
          "internalType": "address payable",
          "name": "walletAddress",
          "type": "address"
        },
        {
          "internalType": "string",
          "name": "firstName",
          "type": "string"
        },
        {
          "internalType": "string",
          "name": "lastName",
          "type": "string"
        },
        {
          "internalType": "bool",
          "name": "canRent",
          "type": "bool"
        },
        {
          "internalType": "bool",
          "name": "active",
          "type": "bool"
        },
        {
          "internalType": "uint256",
          "name": "balance",
          "type": "uint256"
        },
        {
          "internalType": "uint256",
          "name": "due",
          "type": "uint256"
        },
        {
          "internalType": "uint256",
          "name": "start",
          "type": "uint256"
        },
        {
          "internalType": "uint256",
          "name": "end",
          "type": "uint256"
        }
      ],
      "name": "addRenter",
      "outputs": [],
      "stateMutability": "nonpayable",
      "type": "function"
    },
    {
      "inputs": [],
      "name": "balanceOf",
      "outputs": [
        {
          "internalType": "uint256",
          "name": "",
          "type": "uint256"
        }
      ],
      "stateMutability": "view",
      "type": "function"
    },
    {
      "inputs": [
        {
          "internalType": "address",
          "name": "walletAddress",
          "type": "address"
        }
      ],
      "name": "balanceOfRenter",
      "outputs": [
        {
          "internalType": "uint256",
          "name": "",
          "type": "uint256"
        }
      ],
      "stateMutability": "view",
      "type": "function"
    },
    {
      "inputs": [
        {
          "internalType": "address",
          "name": "walletAddress",
          "type": "address"
        }
      ],
      "name": "canRentBike",
      "outputs": [
        {
          "internalType": "bool",
          "name": "",
          "type": "bool"
        }
      ],
      "stateMutability": "view",
      "type": "function"
    },
    {
      "inputs": [
        {
          "internalType": "address",
          "name": "walletAddress",
          "type": "address"
        }
      ],
      "name": "checkIn",
      "outputs": [],
      "stateMutability": "nonpayable",
      "type": "function"
    },
    {
      "inputs": [
        {
          "internalType": "address",
          "name": "walletAddress",
          "type": "address"
        }
      ],
      "name": "checkOut",
      "outputs": [],
      "stateMutability": "nonpayable",
      "type": "function"
    },
    {
      "inputs": [
        {
          "internalType": "address",
          "name": "walletAddress",
          "type": "address"
        }
      ],
      "name": "deposit",
      "outputs": [],
      "stateMutability": "payable",
      "type": "function"
    },
    {
      "inputs": [
        {
          "internalType": "address",
          "name": "walletAddress",
          "type": "address"
        }
      ],
      "name": "getDue",
      "outputs": [
        {
          "internalType": "uint256",
          "name": "",
          "type": "uint256"
        }
      ],
      "stateMutability": "view",
      "type": "function"
    },
    {
      "inputs": [],
      "name": "getOwnerBalance",
      "outputs": [
        {
          "internalType": "uint256",
          "name": "",
          "type": "uint256"
        }
      ],
      "stateMutability": "view",
      "type": "function"
    },
    {
      "inputs": [
        {
          "internalType": "address",
          "name": "walletAddress",
          "type": "address"
        }
      ],
      "name": "getRenter",
      "outputs": [
        {
          "internalType": "string",
          "name": "firstName",
          "type": "string"
        },
        {
          "internalType": "string",
          "name": "lastName",
          "type": "string"
        },
        {
          "internalType": "bool",
          "name": "canRent",
          "type": "bool"
        },
        {
          "internalType": "bool",
          "name": "active",
          "type": "bool"
        },
        {
          "internalType": "uint256",
          "name": "start",
          "type": "uint256"
        }
      ],
      "stateMutability": "view",
      "type": "function"
    },
    {
      "inputs": [
        {
          "internalType": "address",
          "name": "walletAddress",
          "type": "address"
        }
      ],
      "name": "getTotalDuration",
      "outputs": [
        {
          "internalType": "uint256",
          "name": "",
          "type": "uint256"
        }
      ],
      "stateMutability": "view",
      "type": "function"
    },
    {
      "inputs": [
        {
          "internalType": "address",
          "name": "walletAddress",
          "type": "address"
        },
        {
          "internalType": "uint256",
          "name": "amount",
          "type": "uint256"
        }
      ],
      "name": "makePayment",
      "outputs": [],
      "stateMutability": "nonpayable",
      "type": "function"
    },
    {
      "inputs": [
        {
          "internalType": "address",
          "name": "walletAddress",
          "type": "address"
        }
      ],
      "name": "renterExists",
      "outputs": [
        {
          "internalType": "bool",
          "name": "",
          "type": "bool"
        }
      ],
      "stateMutability": "view",
      "type": "function"
    },
    {
      "inputs": [
        {
          "internalType": "address",
          "name": "",
          "type": "address"
        }
      ],
      "name": "renters",
      "outputs": [
        {
          "internalType": "address payable",
          "name": "walletAddress",
          "type": "address"
        },
        {
          "internalType": "string",
          "name": "firstName",
          "type": "string"
        },
        {
          "internalType": "string",
          "name": "lastName",
          "type": "string"
        },
        {
          "internalType": "bool",
          "name": "canRent",
          "type": "bool"
        },
        {
          "internalType": "bool",
          "name": "active",
          "type": "bool"
        },
        {
          "internalType": "uint256",
          "name": "balance",
          "type": "uint256"
        },
        {
          "internalType": "uint256",
          "name": "due",
          "type": "uint256"
        },
        {
          "internalType": "uint256",
          "name": "start",
          "type": "uint256"
        },
        {
          "internalType": "uint256",
          "name": "end",
          "type": "uint256"
        }
      ],
      "stateMutability": "view",
      "type": "function"
    },
    {
      "inputs": [],
      "name": "withdrawOwnerBalance",
      "outputs": [],
      "stateMutability": "payable",
      "type": "function"
    }
  ],
  "bytecode": "0x608060405234801561001057600080fd5b50336000806101000a81548173ffffffffffffffffffffffffffffffffffffffff021916908373ffffffffffffffffffffffffffffffffffffffff16021790555061253c806100606000396000f3fe6080604052600436106100e85760003560e01c80638d23caa01161008a578063d9a59e3311610059578063d9a59e3314610319578063f340fa0114610342578063f98cf07c1461035e578063f9d8241c14610387576100e8565b80638d23caa01461026c578063941b80ac14610295578063aad1b6171461029f578063c6d2a846146102dc576100e8565b80635e649727116100c65780635e64972714610192578063644a1370146101bb5780636a4b27f414610200578063722713f714610241576100e8565b80630b88adbe146100ed57806341ba6e891461012a578063590791f214610167575b600080fd5b3480156100f957600080fd5b50610114600480360381019061010f9190611ad8565b6103c4565b6040516101219190611e29565b60405180910390f35b34801561013657600080fd5b50610151600480360381019061014c9190611ad8565b61048d565b60405161015e9190611f85565b60405180910390f35b34801561017357600080fd5b5061017c61064e565b6040516101899190611f85565b60405180910390f35b34801561019e57600080fd5b506101b960048036038101906101b49190611b01565b6106e7565b005b3480156101c757600080fd5b506101e260048036038101906101dd9190611ad8565b610878565b6040516101f799989796959493929190611d8e565b60405180910390f35b34801561020c57600080fd5b5061022760048036038101906102229190611ad8565b610a10565b604051610238959493929190611e44565b60405180910390f35b34801561024d57600080fd5b50610256610d14565b6040516102639190611f85565b60405180910390f35b34801561027857600080fd5b50610293600480360381019061028e9190611ad8565b610dab565b005b61029d611036565b005b3480156102ab57600080fd5b506102c660048036038101906102c19190611ad8565b6110a1565b6040516102d39190611f85565b60405180910390f35b3480156102e857600080fd5b5061030360048036038101906102fe9190611ad8565b61115d565b6040516103109190611f85565b60405180910390f35b34801561032557600080fd5b50610340600480360381019061033b9190611ad8565b611219565b005b61035c60048036038101906103579190611ad8565b6113cd565b005b34801561036a57600080fd5b5061038560048036038101906103809190611bf7565b611499565b005b34801561039357600080fd5b506103ae60048036038101906103a99190611ad8565b6117cc565b6040516103bb9190611e29565b60405180910390f35b6000818073ffffffffffffffffffffffffffffffffffffffff163373ffffffffffffffffffffffffffffffffffffffff1614610435576040517f08c379a000000000000000000000000000000000000000000000000000000000815260040161042c90611f65565b60405180910390fd5b600260008473ffffffffffffffffffffffffffffffffffffffff1673ffffffffffffffffffffffffffffffffffffffff16815260200190815260200160002060030160009054906101000a900460ff16915050919050565b6000818073ffffffffffffffffffffffffffffffffffffffff163373ffffffffffffffffffffffffffffffffffffffff16146104fe576040517f08c379a00000000000000000000000000000000000000000000000000000000081526004016104f590611f65565b60405180910390fd5b6000600260008573ffffffffffffffffffffffffffffffffffffffff1673ffffffffffffffffffffffffffffffffffffffff16815260200190815260200160002060060154148061059157506000600260008573ffffffffffffffffffffffffffffffffffffffff1673ffffffffffffffffffffffffffffffffffffffff16815260200190815260200160002060070154145b1561059f5760009150610648565b600061062f600260008673ffffffffffffffffffffffffffffffffffffffff1673ffffffffffffffffffffffffffffffffffffffff16815260200190815260200160002060060154600260008773ffffffffffffffffffffffffffffffffffffffff1673ffffffffffffffffffffffffffffffffffffffff168152602001908152602001600020600701546118e7565b90506000603c826106409190612068565b905080935050505b50919050565b60008060009054906101000a900473ffffffffffffffffffffffffffffffffffffffff1673ffffffffffffffffffffffffffffffffffffffff163373ffffffffffffffffffffffffffffffffffffffff16146106df576040517f08c379a00000000000000000000000000000000000000000000000000000000081526004016106d690611f25565b60405180910390fd5b600154905090565b6040518061012001604052808a73ffffffffffffffffffffffffffffffffffffffff1681526020018981526020018881526020018715158152602001861515815260200185815260200184815260200183815260200182815250600260008b73ffffffffffffffffffffffffffffffffffffffff1673ffffffffffffffffffffffffffffffffffffffff16815260200190815260200160002060008201518160000160006101000a81548173ffffffffffffffffffffffffffffffffffffffff021916908373ffffffffffffffffffffffffffffffffffffffff16021790555060208201518160010190805190602001906107e3929190611979565b506040820151816002019080519060200190610800929190611979565b5060608201518160030160006101000a81548160ff02191690831515021790555060808201518160030160016101000a81548160ff02191690831515021790555060a0820151816004015560c0820151816005015560e082015181600601556101008201518160070155905050505050505050505050565b60026020528060005260406000206000915090508060000160009054906101000a900473ffffffffffffffffffffffffffffffffffffffff16908060010180546108c1906121c3565b80601f01602080910402602001604051908101604052809291908181526020018280546108ed906121c3565b801561093a5780601f1061090f5761010080835404028352916020019161093a565b820191906000526020600020905b81548152906001019060200180831161091d57829003601f168201915b50505050509080600201805461094f906121c3565b80601f016020809104026020016040519081016040528092919081815260200182805461097b906121c3565b80156109c85780601f1061099d576101008083540402835291602001916109c8565b820191906000526020600020905b8154815290600101906020018083116109ab57829003601f168201915b5050505050908060030160009054906101000a900460ff16908060030160019054906101000a900460ff16908060040154908060050154908060060154908060070154905089565b6060806000806000858073ffffffffffffffffffffffffffffffffffffffff163373ffffffffffffffffffffffffffffffffffffffff1614610a87576040517f08c379a0000000000000000000000000000000000000000000000000000000008152600401610a7e90611f65565b60405180910390fd5b600260008873ffffffffffffffffffffffffffffffffffffffff1673ffffffffffffffffffffffffffffffffffffffff1681526020019081526020016000206001018054610ad4906121c3565b80601f0160208091040260200160405190810160405280929190818152602001828054610b00906121c3565b8015610b4d5780601f10610b2257610100808354040283529160200191610b4d565b820191906000526020600020905b815481529060010190602001808311610b3057829003601f168201915b50505050509550600260008873ffffffffffffffffffffffffffffffffffffffff1673ffffffffffffffffffffffffffffffffffffffff1681526020019081526020016000206002018054610ba1906121c3565b80601f0160208091040260200160405190810160405280929190818152602001828054610bcd906121c3565b8015610c1a5780601f10610bef57610100808354040283529160200191610c1a565b820191906000526020600020905b815481529060010190602001808311610bfd57829003601f168201915b50505050509450600260008873ffffffffffffffffffffffffffffffffffffffff1673ffffffffffffffffffffffffffffffffffffffff16815260200190815260200160002060030160009054906101000a900460ff169350600260008873ffffffffffffffffffffffffffffffffffffffff1673ffffffffffffffffffffffffffffffffffffffff16815260200190815260200160002060030160019054906101000a900460ff169250600260008873ffffffffffffffffffffffffffffffffffffffff1673ffffffffffffffffffffffffffffffffffffffff1681526020019081526020016000206006015491505091939590929450565b60008060009054906101000a900473ffffffffffffffffffffffffffffffffffffffff1673ffffffffffffffffffffffffffffffffffffffff163373ffffffffffffffffffffffffffffffffffffffff1614610da5576040517f08c379a0000000000000000000000000000000000000000000000000000000008152600401610d9c90611f25565b60405180910390fd5b47905090565b808073ffffffffffffffffffffffffffffffffffffffff163373ffffffffffffffffffffffffffffffffffffffff1614610e1a576040517f08c379a0000000000000000000000000000000000000000000000000000000008152600401610e1190611f65565b60405180910390fd5b6000600260008473ffffffffffffffffffffffffffffffffffffffff1673ffffffffffffffffffffffffffffffffffffffff1681526020019081526020016000206005015414610e9f576040517f08c379a0000000000000000000000000000000000000000000000000000000008152600401610e9690611f05565b60405180910390fd5b60011515600260008473ffffffffffffffffffffffffffffffffffffffff1673ffffffffffffffffffffffffffffffffffffffff16815260200190815260200160002060030160009054906101000a900460ff16151514610f35576040517f08c379a0000000000000000000000000000000000000000000000000000000008152600401610f2c90611ee5565b60405180910390fd5b6001600260008473ffffffffffffffffffffffffffffffffffffffff1673ffffffffffffffffffffffffffffffffffffffff16815260200190815260200160002060030160016101000a81548160ff02191690831515021790555042600260008473ffffffffffffffffffffffffffffffffffffffff1673ffffffffffffffffffffffffffffffffffffffff168152602001908152602001600020600601819055506000600260008473ffffffffffffffffffffffffffffffffffffffff1673ffffffffffffffffffffffffffffffffffffffff16815260200190815260200160002060030160006101000a81548160ff0219169083151502179055505050565b60008054906101000a900473ffffffffffffffffffffffffffffffffffffffff1673ffffffffffffffffffffffffffffffffffffffff166108fc6001549081150290604051600060405180830381858888f1935050505015801561109e573d6000803e3d6000fd5b50565b6000818073ffffffffffffffffffffffffffffffffffffffff163373ffffffffffffffffffffffffffffffffffffffff1614611112576040517f08c379a000000000000000000000000000000000000000000000000000000000815260040161110990611f65565b60405180910390fd5b600260008473ffffffffffffffffffffffffffffffffffffffff1673ffffffffffffffffffffffffffffffffffffffff16815260200190815260200160002060040154915050919050565b6000818073ffffffffffffffffffffffffffffffffffffffff163373ffffffffffffffffffffffffffffffffffffffff16146111ce576040517f08c379a00000000000000000000000000000000000000000000000000000000081526004016111c590611f65565b60405180910390fd5b600260008473ffffffffffffffffffffffffffffffffffffffff1673ffffffffffffffffffffffffffffffffffffffff16815260200190815260200160002060050154915050919050565b808073ffffffffffffffffffffffffffffffffffffffff163373ffffffffffffffffffffffffffffffffffffffff1614611288576040517f08c379a000000000000000000000000000000000000000000000000000000000815260040161127f90611f65565b60405180910390fd5b60011515600260008473ffffffffffffffffffffffffffffffffffffffff1673ffffffffffffffffffffffffffffffffffffffff16815260200190815260200160002060030160019054906101000a900460ff1615151461131e576040517f08c379a000000000000000000000000000000000000000000000000000000000815260040161131590611ea5565b60405180910390fd5b6000600260008473ffffffffffffffffffffffffffffffffffffffff1673ffffffffffffffffffffffffffffffffffffffff16815260200190815260200160002060030160016101000a81548160ff02191690831515021790555042600260008473ffffffffffffffffffffffffffffffffffffffff1673ffffffffffffffffffffffffffffffffffffffff168152602001908152602001600020600701819055506113c9826118fd565b5050565b808073ffffffffffffffffffffffffffffffffffffffff163373ffffffffffffffffffffffffffffffffffffffff161461143c576040517f08c379a000000000000000000000000000000000000000000000000000000000815260040161143390611f65565b60405180910390fd5b34600260008473ffffffffffffffffffffffffffffffffffffffff1673ffffffffffffffffffffffffffffffffffffffff168152602001908152602001600020600401600082825461148e9190612012565b925050819055505050565b818073ffffffffffffffffffffffffffffffffffffffff163373ffffffffffffffffffffffffffffffffffffffff1614611508576040517f08c379a00000000000000000000000000000000000000000000000000000000081526004016114ff90611f65565b60405180910390fd5b6000600260008573ffffffffffffffffffffffffffffffffffffffff1673ffffffffffffffffffffffffffffffffffffffff168152602001908152602001600020600501541161158d576040517f08c379a000000000000000000000000000000000000000000000000000000000815260040161158490611ec5565b60405180910390fd5b81600260008573ffffffffffffffffffffffffffffffffffffffff1673ffffffffffffffffffffffffffffffffffffffff1681526020019081526020016000206004015411611611576040517f08c379a000000000000000000000000000000000000000000000000000000000815260040161160890611f45565b60405180910390fd5b81600260008573ffffffffffffffffffffffffffffffffffffffff1673ffffffffffffffffffffffffffffffffffffffff168152602001908152602001600020600401600082825461166391906120f3565b92505081905550816001600082825461167c9190612012565b925050819055506001600260008573ffffffffffffffffffffffffffffffffffffffff1673ffffffffffffffffffffffffffffffffffffffff16815260200190815260200160002060030160006101000a81548160ff02191690831515021790555081600260008573ffffffffffffffffffffffffffffffffffffffff1673ffffffffffffffffffffffffffffffffffffffff168152602001908152602001600020600501600082825461173091906120f3565b925050819055506000600260008573ffffffffffffffffffffffffffffffffffffffff1673ffffffffffffffffffffffffffffffffffffffff168152602001908152602001600020600601819055506000600260008573ffffffffffffffffffffffffffffffffffffffff1673ffffffffffffffffffffffffffffffffffffffff16815260200190815260200160002060070181905550505050565b6000818073ffffffffffffffffffffffffffffffffffffffff163373ffffffffffffffffffffffffffffffffffffffff161461183d576040517f08c379a000000000000000000000000000000000000000000000000000000000815260040161183490611f65565b60405180910390fd5b600073ffffffffffffffffffffffffffffffffffffffff16600260008573ffffffffffffffffffffffffffffffffffffffff1673ffffffffffffffffffffffffffffffffffffffff16815260200190815260200160002060000160009054906101000a900473ffffffffffffffffffffffffffffffffffffffff1673ffffffffffffffffffffffffffffffffffffffff16146118dc57600191506118e1565b600091505b50919050565b600082826118f591906120f3565b905092915050565b60006119088261048d565b905060006005826119199190612068565b90506611c37937e080008161192e9190612099565b600260008573ffffffffffffffffffffffffffffffffffffffff1673ffffffffffffffffffffffffffffffffffffffff16815260200190815260200160002060050181905550505050565b828054611985906121c3565b90600052602060002090601f0160209004810192826119a757600085556119ee565b82601f106119c057805160ff19168380011785556119ee565b828001600101855582156119ee579182015b828111156119ed5782518255916020019190600101906119d2565b5b5090506119fb91906119ff565b5090565b5b80821115611a18576000816000905550600101611a00565b5090565b6000611a2f611a2a84611fc5565b611fa0565b905082815260208101848484011115611a4757600080fd5b611a52848285612181565b509392505050565b600081359050611a69816124aa565b92915050565b600081359050611a7e816124c1565b92915050565b600081359050611a93816124d8565b92915050565b600082601f830112611aaa57600080fd5b8135611aba848260208601611a1c565b91505092915050565b600081359050611ad2816124ef565b92915050565b600060208284031215611aea57600080fd5b6000611af884828501611a5a565b91505092915050565b60008060008060008060008060006101208a8c031215611b2057600080fd5b6000611b2e8c828d01611a6f565b99505060208a013567ffffffffffffffff811115611b4b57600080fd5b611b578c828d01611a99565b98505060408a013567ffffffffffffffff811115611b7457600080fd5b611b808c828d01611a99565b9750506060611b918c828d01611a84565b9650506080611ba28c828d01611a84565b95505060a0611bb38c828d01611ac3565b94505060c0611bc48c828d01611ac3565b93505060e0611bd58c828d01611ac3565b925050610100611be78c828d01611ac3565b9150509295985092959850929598565b60008060408385031215611c0a57600080fd5b6000611c1885828601611a5a565b9250506020611c2985828601611ac3565b9150509250929050565b611c3c81612139565b82525050565b611c4b8161214b565b82525050565b6000611c5c82611ff6565b611c668185612001565b9350611c76818560208601612190565b611c7f816122e2565b840191505092915050565b6000611c97601e83612001565b9150611ca2826122f3565b602082019050919050565b6000611cba602a83612001565b9150611cc58261231c565b604082019050919050565b6000611cdd601d83612001565b9150611ce88261236b565b602082019050919050565b6000611d00601b83612001565b9150611d0b82612394565b602082019050919050565b6000611d23602283612001565b9150611d2e826123bd565b604082019050919050565b6000611d46604583612001565b9150611d518261240c565b606082019050919050565b6000611d69602083612001565b9150611d7482612481565b602082019050919050565b611d8881612177565b82525050565b600061012082019050611da4600083018c611c33565b8181036020830152611db6818b611c51565b90508181036040830152611dca818a611c51565b9050611dd96060830189611c42565b611de66080830188611c42565b611df360a0830187611d7f565b611e0060c0830186611d7f565b611e0d60e0830185611d7f565b611e1b610100830184611d7f565b9a9950505050505050505050565b6000602082019050611e3e6000830184611c42565b92915050565b600060a0820190508181036000830152611e5e8188611c51565b90508181036020830152611e728187611c51565b9050611e816040830186611c42565b611e8e6060830185611c42565b611e9b6080830184611d7f565b9695505050505050565b60006020820190508181036000830152611ebe81611c8a565b9050919050565b60006020820190508181036000830152611ede81611cad565b9050919050565b60006020820190508181036000830152611efe81611cd0565b9050919050565b60006020820190508181036000830152611f1e81611cf3565b9050919050565b60006020820190508181036000830152611f3e81611d16565b9050919050565b60006020820190508181036000830152611f5e81611d39565b9050919050565b60006020820190508181036000830152611f7e81611d5c565b9050919050565b6000602082019050611f9a6000830184611d7f565b92915050565b6000611faa611fbb565b9050611fb682826121f5565b919050565b6000604051905090565b600067ffffffffffffffff821115611fe057611fdf6122b3565b5b611fe9826122e2565b9050602081019050919050565b600081519050919050565b600082825260208201905092915050565b600061201d82612177565b915061202883612177565b9250827fffffffffffffffffffffffffffffffffffffffffffffffffffffffffffffffff0382111561205d5761205c612226565b5b828201905092915050565b600061207382612177565b915061207e83612177565b92508261208e5761208d612255565b5b828204905092915050565b60006120a482612177565b91506120af83612177565b9250817fffffffffffffffffffffffffffffffffffffffffffffffffffffffffffffffff04831182151516156120e8576120e7612226565b5b828202905092915050565b60006120fe82612177565b915061210983612177565b92508282101561211c5761211b612226565b5b828203905092915050565b600061213282612157565b9050919050565b600061214482612157565b9050919050565b60008115159050919050565b600073ffffffffffffffffffffffffffffffffffffffff82169050919050565b6000819050919050565b82818337600083830152505050565b60005b838110156121ae578082015181840152602081019050612193565b838111156121bd576000848401525b50505050565b600060028204905060018216806121db57607f821691505b602082108114156121ef576121ee612284565b5b50919050565b6121fe826122e2565b810181811067ffffffffffffffff8211171561221d5761221c6122b3565b5b80604052505050565b7f4e487b7100000000000000000000000000000000000000000000000000000000600052601160045260246000fd5b7f4e487b7100000000000000000000000000000000000000000000000000000000600052601260045260246000fd5b7f4e487b7100000000000000000000000000000000000000000000000000000000600052602260045260246000fd5b7f4e487b7100000000000000000000000000000000000000000000000000000000600052604160045260246000fd5b6000601f19601f8301169050919050565b7f506c6561736520636865636b206f757420612062696b652066697273742e0000600082015250565b7f596f7520646f206e6f74206861766520616e797468696e67206475652061742060008201527f746869732074696d652e00000000000000000000000000000000000000000000602082015250565b7f596f752063616e6e6f742072656e7420617420746869732074696d652e000000600082015250565b7f596f75206861766520612070656e64696e672062616c616e63652e0000000000600082015250565b7f596f7520617265206e6f7420616c6c6f77656420746f2061636365737320746860008201527f6973000000000000000000000000000000000000000000000000000000000000602082015250565b7f596f7520646f206e6f74206861766520656e6f7567682066756e647320746f2060008201527f636f766572207061796d656e742e20506c65617365206d616b6520612064657060208201527f6f7369742e000000000000000000000000000000000000000000000000000000604082015250565b7f596f752063616e206f6e6c79206d616e61676520796f7572206163636f756e74600082015250565b6124b381612127565b81146124be57600080fd5b50565b6124ca81612139565b81146124d557600080fd5b50565b6124e18161214b565b81146124ec57600080fd5b50565b6124f881612177565b811461250357600080fd5b5056fea2646970667358221220d43ee66716e403e534c154443fc35fde523c46b8d141913a0386266055d8ef9264736f6c63430008040033",
  "linkReferences": {},
  "deployedLinkReferences": {}
}